:100000000C9434000C9451000C9451000C94510049
:100010000C9451000C9451000C9451000C9451001C
:100020000C9451000C9451000C9451000C9451000C
:100030000C9451000C9451000C948D000C945100C0
:100040000C9451000C9451000C9451000C945100EC
:100050000C9451000C9451000C9451000C945100DC
:100060000C9451000C94510011241FBECFEFD8E026
:10007000DEBFCDBF11E0A0E0B1E0EEEFF7E002C0DF
:1000800005900D92AE30B107D9F721E0AEE0B1E0B6
:1000900001C01D92A031B207E1F70E94FC010C944F
:1000A000FD030C940000ECE7F0E080818064808325
:1000B000EAE7F0E0808180688083808187608083C8
:1000C00008958770ECE7F0E09081987F892B80831A
:1000D000EAE7F0E080818064808380917A0086FD89
:1000E000FCCF8091780090917900089514BC15BCE4
:1000F00084B5826084BD84B58E7F84BD85B5836000
:1001000085BD85B58B7F85BD16BC89EF87BDEEE6C5
:10011000F0E080818260808308951F920F920FB675
:100120000F9211242F938F939F9380910E019091A2
:100130000F01019690930F0180930E0180910E01A3
:1001400090910F01843F914040F095B180E2892762
:1001500085B910920F0110920E019F918F912F91EE
:100160000F900FBE0F901F90189585B1886085B9CC
:100170008FE99FE00197F1F700C0000085B1877F0C
:1001800085B99FEF20E782E0915020408040E1F761
:1001900000C0000008959BB1937C9BB983FF03C00E
:1001A0009BB194609BB982FF03C09BB198609BB9DF
:1001B00081FF03C09BB190619BB980FF03C08BB1ED
:1001C00080628BB90E94B5000895CF93C82F61302B
:1001D00021F485B1806185B903C085B18F7E85B971
:1001E0008C2F82958F700E94CB008C2F8F700E9475
:1001F000CB00CF910895CF93C82F60E00E94E50017
:10020000C150C23030F48FE39FE10197F1F700C095
:100210000000CF910895882311F090E401C090E090
:10022000862F8F70890F80680E94FB00089561E01F
:100230000E94E5000895CF93DF93EC0103C021965F
:100240000E94170188818111FACFDF91CF91089523
:1002500084B1806184B984B1886084B98AB18C63C7
:100260008AB984B1806284B985B18F7D85B92FE761
:1002700088E391E0215080409040E1F700C0000009
:1002800085B1877F85B983E00E94CB008FEF9CE723
:100290000197F1F700C0000083E00E94CB008FE9D6
:1002A0009FE00197F1F700C0000083E00E94CB00BF
:1002B0008FE99FE00197F1F700C0000082E00E9403
:1002C000CB008FE99FE00197F1F700C0000088E2C2
:1002D0000E94FB0088E00E94FB0081E00E94FB007E
:1002E00086E00E94FB008CE00E94FB000895CF9303
:1002F000DF93EC018A30910568F09C01ADECBCEC19
:100300000E94EE0396958795969587959695879585
:100310000E9477019E01ADECBCEC0E94EE03969525
:10032000879596958795969587959C01220F331F03
:10033000880F991F880F991F880F991F820F931F8D
:100340009E01281B390BC901805D0E941701DF91B6
:10035000CF9108958F929F92AF92BF92CF92DF92EA
:10036000EF92FF924B015C0120E030E0A9010E9476
:100370009B0288233CF48DE20E941701B7FAB094E7
:10038000B7F8B094C501B4010E94A0026B017C01D2
:10039000CB010E9477018EE20E941701B60180E036
:1003A00090E00E94CF029B01AC01C501B4010E9404
:1003B0002E0220E030E048EC52E40E94810320E06D
:1003C00030E040E05FE30E942F020E94A0026B0138
:1003D0007C018AE0C816D10418F480E30E9417015A
:1003E000C6010E947701FF90EF90DF90CF90BF9001
:1003F000AF909F908F9008950E9428010E94530013
:1004000060E080E00E940B0180E091E00E941B010F
:1004100084B1806284B90E947600789480E00E9462
:100420006100BC0180E090E00E94CF0223E23BED3E
:1004300049EF5EE30E9481036B017C0160E081E093
:100440000E940B01C701B6010E94AA018FED0E9414
:1004500017018CE091E00E941B01E0CF5058BB27B0
:10046000AA270E9446020C9447030E94390338F0E1
:100470000E94400320F039F49F3F19F426F40C94B5
:1004800036030EF4E095E7FB0C943003E92F0E944D
:10049000580358F3BA17620773078407950720F0CB
:1004A00079F4A6F50C947A030EF4E0950B2EBA2F8E
:1004B000A02D0B01B90190010C01CA01A00111246A
:1004C000FF27591B99F0593F50F4503E68F11A1616
:1004D000F040A22F232F342F4427585FF3CF4695A7
:1004E00037952795A795F0405395C9F77EF41F16C9
:1004F000BA0B620B730B840BBAF09150A1F0FF0F93
:10050000BB1F661F771F881FC2F70EC0BA0F621F7E
:10051000731F841F48F4879577956795B795F7956E
:100520009E3F08F0B0CF9395880F08F09927EE0F03
:100530009795879508950E940C0308F481E008952B
:100540000E94600388F09F5798F0B92F9927B75100
:10055000B0F0E1F0660F771F881F991F1AF0BA9567
:10056000C9F714C0B13091F00E947A03B1E0089548
:100570000C947A03672F782F8827B85F39F0B93F3A
:10058000CCF3869577956795B395D9F73EF490951A
:100590008095709561957F4F8F4F9F4F0895E89498
:1005A00009C097FB3EF490958095709561957F4FBB
:1005B0008F4F9F4F9923A9F0F92F96E9BB27939569
:1005C000F695879577956795B795F111F8CFFAF479
:1005D000BB0F11F460FF1BC06F5F7F4F8F4F9F4FAA
:1005E00016C0882311F096E911C0772321F09EE808
:1005F000872F762F05C0662371F096E8862F70E06E
:1006000060E02AF09A95660F771F881FDAF7880F47
:100610009695879597F90895990F0008550FAA0B9D
:10062000E0E8FEEF16161706E807F907C0F0121605
:100630001306E407F50798F0621B730B840B950B08
:1006400039F40A2661F0232B242B252B21F408955D
:100650000A2609F4A140A6958FEF811D811D0895FA
:1006600097F99F6780E870E060E008959FEF80EC65
:10067000089500240A941616170618060906089508
:1006800000240A9412161306140605060895092E6E
:100690000394000C11F4882352F0BB0F40F4BF2BDD
:1006A00011F460FF04C06F5F7F4F8F4F9F4F08951D
:1006B00057FD9058440F551F59F05F3F71F0479513
:1006C000880F97FB991F61F09F3F79F087950895F8
:1006D000121613061406551FF2CF4695F1DF08C017
:1006E000161617061806991FF1CF86957105610534
:1006F00008940895E894BB2766277727CB0197F9DC
:1007000008950E9494030C9447030E94390338F023
:100710000E94400320F0952311F00C9430030C94B8
:10072000360311240C947B030E94580370F3959FA9
:10073000C1F3950F50E0551F629FF001729FBB27D8
:10074000F00DB11D639FAA27F00DB11DAA1F649F74
:100750006627B00DA11D661F829F2227B00DA11D27
:10076000621F739FB00DA11D621F839FA00D611DAD
:10077000221F749F3327A00D611D231F849F600DCE
:10078000211D822F762F6A2F11249F5750409AF0F7
:10079000F1F088234AF0EE0FFF1FBB1F661F771F83
:1007A000881F91505040A9F79E3F510580F00C944E
:1007B00030030C947B035F3FE4F3983ED4F38695BB
:1007C00077956795B795F795E7959F5FC1F7FE2BEE
:1007D000880F911D9695879597F90895A29FB0016E
:1007E000B39FC001A39F700D811D1124911DB29F65
:0E07F000700D811D1124911D0895F894FFCF06
:0E07FE0054656D70657261747572650043001C
:00000001FF
